{
  "_format": "hh-sol-artifact-1",
  "contractName": "TRST0Crowdsale",
  "sourceName": "contracts/TRST0Crowdsale.sol",
  "abi": [
    {
      "inputs": [
        {
          "internalType": "uint256",
          "name": "rate",
          "type": "uint256"
        },
        {
          "internalType": "address payable",
          "name": "wallet",
          "type": "address"
        },
        {
          "internalType": "contract ERC20",
          "name": "token",
          "type": "address"
        }
      ],
      "stateMutability": "nonpayable",
      "type": "constructor"
    },
    {
      "anonymous": false,
      "inputs": [
        {
          "indexed": true,
          "internalType": "address",
          "name": "purchaser",
          "type": "address"
        },
        {
          "indexed": true,
          "internalType": "address",
          "name": "beneficiary",
          "type": "address"
        },
        {
          "indexed": false,
          "internalType": "uint256",
          "name": "value",
          "type": "uint256"
        },
        {
          "indexed": false,
          "internalType": "uint256",
          "name": "amount",
          "type": "uint256"
        }
      ],
      "name": "TokensPurchased",
      "type": "event"
    },
    {
      "inputs": [
        {
          "internalType": "address",
          "name": "beneficiary",
          "type": "address"
        }
      ],
      "name": "buyTokens",
      "outputs": [],
      "stateMutability": "payable",
      "type": "function"
    },
    {
      "inputs": [],
      "name": "rate",
      "outputs": [
        {
          "internalType": "uint256",
          "name": "",
          "type": "uint256"
        }
      ],
      "stateMutability": "view",
      "type": "function"
    },
    {
      "inputs": [],
      "name": "remainingTokens",
      "outputs": [
        {
          "internalType": "uint256",
          "name": "",
          "type": "uint256"
        }
      ],
      "stateMutability": "view",
      "type": "function"
    },
    {
      "inputs": [],
      "name": "token",
      "outputs": [
        {
          "internalType": "contract IERC20",
          "name": "",
          "type": "address"
        }
      ],
      "stateMutability": "view",
      "type": "function"
    },
    {
      "inputs": [],
      "name": "tokenWallet",
      "outputs": [
        {
          "internalType": "address",
          "name": "",
          "type": "address"
        }
      ],
      "stateMutability": "view",
      "type": "function"
    },
    {
      "inputs": [],
      "name": "wallet",
      "outputs": [
        {
          "internalType": "address payable",
          "name": "",
          "type": "address"
        }
      ],
      "stateMutability": "view",
      "type": "function"
    },
    {
      "inputs": [],
      "name": "weiRaised",
      "outputs": [
        {
          "internalType": "uint256",
          "name": "",
          "type": "uint256"
        }
      ],
      "stateMutability": "view",
      "type": "function"
    },
    {
      "stateMutability": "payable",
      "type": "receive"
    }
  ],
  "bytecode": "0x60806040523480156200001157600080fd5b5060405162001860380380620018608339818101604052810190620000379190620003b7565b8183838360016000819055506000831162000089576040517f08c379a0000000000000000000000000000000000000000000000000000000008152600401620000809062000474565b60405180910390fd5b600073ffffffffffffffffffffffffffffffffffffffff168273ffffffffffffffffffffffffffffffffffffffff161415620000fc576040517f08c379a0000000000000000000000000000000000000000000000000000000008152600401620000f3906200050c565b60405180910390fd5b600073ffffffffffffffffffffffffffffffffffffffff168173ffffffffffffffffffffffffffffffffffffffff1614156200016f576040517f08c379a00000000000000000000000000000000000000000000000000000000081526004016200016690620005a4565b60405180910390fd5b8260038190555081600260006101000a81548173ffffffffffffffffffffffffffffffffffffffff021916908373ffffffffffffffffffffffffffffffffffffffff16021790555080600160006101000a81548173ffffffffffffffffffffffffffffffffffffffff021916908373ffffffffffffffffffffffffffffffffffffffff160217905550505050600073ffffffffffffffffffffffffffffffffffffffff168173ffffffffffffffffffffffffffffffffffffffff1614156200026e576040517f08c379a000000000000000000000000000000000000000000000000000000000815260040162000265906200063c565b60405180910390fd5b80600560006101000a81548173ffffffffffffffffffffffffffffffffffffffff021916908373ffffffffffffffffffffffffffffffffffffffff160217905550505050506200065e565b600080fd5b6000819050919050565b620002d381620002be565b8114620002df57600080fd5b50565b600081519050620002f381620002c8565b92915050565b600073ffffffffffffffffffffffffffffffffffffffff82169050919050565b60006200032682620002f9565b9050919050565b620003388162000319565b81146200034457600080fd5b50565b60008151905062000358816200032d565b92915050565b60006200036b82620002f9565b9050919050565b60006200037f826200035e565b9050919050565b620003918162000372565b81146200039d57600080fd5b50565b600081519050620003b18162000386565b92915050565b600080600060608486031215620003d357620003d2620002b9565b5b6000620003e386828701620002e2565b9350506020620003f68682870162000347565b92505060406200040986828701620003a0565b9150509250925092565b600082825260208201905092915050565b7f43726f776473616c653a20726174652069732030000000000000000000000000600082015250565b60006200045c60148362000413565b9150620004698262000424565b602082019050919050565b600060208201905081810360008301526200048f816200044d565b9050919050565b7f43726f776473616c653a2077616c6c657420697320746865207a65726f20616460008201527f6472657373000000000000000000000000000000000000000000000000000000602082015250565b6000620004f460258362000413565b9150620005018262000496565b604082019050919050565b600060208201905081810360008301526200052781620004e5565b9050919050565b7f43726f776473616c653a20746f6b656e20697320746865207a65726f2061646460008201527f7265737300000000000000000000000000000000000000000000000000000000602082015250565b60006200058c60248362000413565b915062000599826200052e565b604082019050919050565b60006020820190508181036000830152620005bf816200057d565b9050919050565b7f416c6c6f77616e636543726f776473616c653a20746f6b656e2077616c6c657460008201527f20697320746865207a65726f2061646472657373000000000000000000000000602082015250565b60006200062460348362000413565b91506200063182620005c6565b604082019050919050565b60006020820190508181036000830152620006578162000615565b9050919050565b6111f2806200066e6000396000f3fe6080604052600436106100745760003560e01c8063bf5839031161004e578063bf58390314610111578063bff99c6c1461013c578063ec8ac4d814610167578063fc0c546a146101835761008b565b80632c4e722e146100905780634042b66f146100bb578063521eb273146100e65761008b565b3661008b576100896100846101ae565b6101b6565b005b600080fd5b34801561009c57600080fd5b506100a56102dc565b6040516100b291906109f8565b60405180910390f35b3480156100c757600080fd5b506100d06102e6565b6040516100dd91906109f8565b60405180910390f35b3480156100f257600080fd5b506100fb6102f0565b6040516101089190610a54565b60405180910390f35b34801561011d57600080fd5b5061012661031a565b60405161013391906109f8565b60405180910390f35b34801561014857600080fd5b5061015161048f565b60405161015e9190610a90565b60405180910390f35b610181600480360381019061017c9190610adc565b6101b6565b005b34801561018f57600080fd5b506101986104b9565b6040516101a59190610b68565b60405180910390f35b600033905090565b600260005414156101fc576040517f08c379a00000000000000000000000000000000000000000000000000000000081526004016101f390610be0565b60405180910390fd5b6002600081905550600034905061021382826104e3565b600061021e8261059b565b9050610235826004546105b990919063ffffffff16565b60048190555061024583826105cf565b8273ffffffffffffffffffffffffffffffffffffffff166102646101ae565b73ffffffffffffffffffffffffffffffffffffffff167f6faf93231a456e552dbc9961f58d9713ee4f2e69d15f1975b050ef0911053a7b84846040516102ab929190610c00565b60405180910390a36102bd83836105dd565b6102c56105e1565b6102cf838361064c565b5050600160008190555050565b6000600354905090565b6000600454905090565b6000600260009054906101000a900473ffffffffffffffffffffffffffffffffffffffff16905090565b600061048a6103276104b9565b73ffffffffffffffffffffffffffffffffffffffff166370a08231600560009054906101000a900473ffffffffffffffffffffffffffffffffffffffff166040518263ffffffff1660e01b81526004016103819190610a90565b60206040518083038186803b15801561039957600080fd5b505afa1580156103ad573d6000803e3d6000fd5b505050506040513d601f19601f820116820180604052508101906103d19190610c55565b6103d96104b9565b73ffffffffffffffffffffffffffffffffffffffff1663dd62ed3e600560009054906101000a900473ffffffffffffffffffffffffffffffffffffffff16306040518363ffffffff1660e01b8152600401610435929190610c82565b60206040518083038186803b15801561044d57600080fd5b505afa158015610461573d6000803e3d6000fd5b505050506040513d601f19601f820116820180604052508101906104859190610c55565b610650565b905090565b6000600560009054906101000a900473ffffffffffffffffffffffffffffffffffffffff16905090565b6000600160009054906101000a900473ffffffffffffffffffffffffffffffffffffffff16905090565b600073ffffffffffffffffffffffffffffffffffffffff168273ffffffffffffffffffffffffffffffffffffffff161415610553576040517f08c379a000000000000000000000000000000000000000000000000000000000815260040161054a90610d1d565b60405180910390fd5b6000811415610597576040517f08c379a000000000000000000000000000000000000000000000000000000000815260040161058e90610d89565b60405180910390fd5b5050565b60006105b26003548361066990919063ffffffff16565b9050919050565b600081836105c79190610dd8565b905092915050565b6105d9828261067f565b5050565b5050565b600260009054906101000a900473ffffffffffffffffffffffffffffffffffffffff1673ffffffffffffffffffffffffffffffffffffffff166108fc349081150290604051600060405180830381858888f19350505050158015610649573d6000803e3d6000fd5b50565b5050565b600081831061065f5781610661565b825b905092915050565b600081836106779190610e2e565b905092915050565b6106d5600560009054906101000a900473ffffffffffffffffffffffffffffffffffffffff1683836106af6104b9565b73ffffffffffffffffffffffffffffffffffffffff166106d9909392919063ffffffff16565b5050565b61075c846323b872dd60e01b8585856040516024016106fa93929190610e88565b604051602081830303815290604052907bffffffffffffffffffffffffffffffffffffffffffffffffffffffff19166020820180517bffffffffffffffffffffffffffffffffffffffffffffffffffffffff8381831617835250505050610762565b50505050565b60006107c4826040518060400160405280602081526020017f5361666545524332303a206c6f772d6c6576656c2063616c6c206661696c65648152508573ffffffffffffffffffffffffffffffffffffffff166108299092919063ffffffff16565b905060008151111561082457808060200190518101906107e49190610ef7565b610823576040517f08c379a000000000000000000000000000000000000000000000000000000000815260040161081a90610f96565b60405180910390fd5b5b505050565b60606108388484600085610841565b90509392505050565b606082471015610886576040517f08c379a000000000000000000000000000000000000000000000000000000000815260040161087d90611028565b60405180910390fd5b61088f85610955565b6108ce576040517f08c379a00000000000000000000000000000000000000000000000000000000081526004016108c590611094565b60405180910390fd5b6000808673ffffffffffffffffffffffffffffffffffffffff1685876040516108f7919061112e565b60006040518083038185875af1925050503d8060008114610934576040519150601f19603f3d011682016040523d82523d6000602084013e610939565b606091505b5091509150610949828286610978565b92505050949350505050565b6000808273ffffffffffffffffffffffffffffffffffffffff163b119050919050565b60608315610988578290506109d8565b60008351111561099b5782518084602001fd5b816040517f08c379a00000000000000000000000000000000000000000000000000000000081526004016109cf919061119a565b60405180910390fd5b9392505050565b6000819050919050565b6109f2816109df565b82525050565b6000602082019050610a0d60008301846109e9565b92915050565b600073ffffffffffffffffffffffffffffffffffffffff82169050919050565b6000610a3e82610a13565b9050919050565b610a4e81610a33565b82525050565b6000602082019050610a696000830184610a45565b92915050565b6000610a7a82610a13565b9050919050565b610a8a81610a6f565b82525050565b6000602082019050610aa56000830184610a81565b92915050565b600080fd5b610ab981610a6f565b8114610ac457600080fd5b50565b600081359050610ad681610ab0565b92915050565b600060208284031215610af257610af1610aab565b5b6000610b0084828501610ac7565b91505092915050565b6000819050919050565b6000610b2e610b29610b2484610a13565b610b09565b610a13565b9050919050565b6000610b4082610b13565b9050919050565b6000610b5282610b35565b9050919050565b610b6281610b47565b82525050565b6000602082019050610b7d6000830184610b59565b92915050565b600082825260208201905092915050565b7f5265656e7472616e637947756172643a207265656e7472616e742063616c6c00600082015250565b6000610bca601f83610b83565b9150610bd582610b94565b602082019050919050565b60006020820190508181036000830152610bf981610bbd565b9050919050565b6000604082019050610c1560008301856109e9565b610c2260208301846109e9565b9392505050565b610c32816109df565b8114610c3d57600080fd5b50565b600081519050610c4f81610c29565b92915050565b600060208284031215610c6b57610c6a610aab565b5b6000610c7984828501610c40565b91505092915050565b6000604082019050610c976000830185610a81565b610ca46020830184610a81565b9392505050565b7f43726f776473616c653a2062656e656669636961727920697320746865207a6560008201527f726f206164647265737300000000000000000000000000000000000000000000602082015250565b6000610d07602a83610b83565b9150610d1282610cab565b604082019050919050565b60006020820190508181036000830152610d3681610cfa565b9050919050565b7f43726f776473616c653a20776569416d6f756e74206973203000000000000000600082015250565b6000610d73601983610b83565b9150610d7e82610d3d565b602082019050919050565b60006020820190508181036000830152610da281610d66565b9050919050565b7f4e487b7100000000000000000000000000000000000000000000000000000000600052601160045260246000fd5b6000610de3826109df565b9150610dee836109df565b9250827fffffffffffffffffffffffffffffffffffffffffffffffffffffffffffffffff03821115610e2357610e22610da9565b5b828201905092915050565b6000610e39826109df565b9150610e44836109df565b9250817fffffffffffffffffffffffffffffffffffffffffffffffffffffffffffffffff0483118215151615610e7d57610e7c610da9565b5b828202905092915050565b6000606082019050610e9d6000830186610a81565b610eaa6020830185610a81565b610eb760408301846109e9565b949350505050565b60008115159050919050565b610ed481610ebf565b8114610edf57600080fd5b50565b600081519050610ef181610ecb565b92915050565b600060208284031215610f0d57610f0c610aab565b5b6000610f1b84828501610ee2565b91505092915050565b7f5361666545524332303a204552433230206f7065726174696f6e20646964206e60008201527f6f74207375636365656400000000000000000000000000000000000000000000602082015250565b6000610f80602a83610b83565b9150610f8b82610f24565b604082019050919050565b60006020820190508181036000830152610faf81610f73565b9050919050565b7f416464726573733a20696e73756666696369656e742062616c616e636520666f60008201527f722063616c6c0000000000000000000000000000000000000000000000000000602082015250565b6000611012602683610b83565b915061101d82610fb6565b604082019050919050565b6000602082019050818103600083015261104181611005565b9050919050565b7f416464726573733a2063616c6c20746f206e6f6e2d636f6e7472616374000000600082015250565b600061107e601d83610b83565b915061108982611048565b602082019050919050565b600060208201905081810360008301526110ad81611071565b9050919050565b600081519050919050565b600081905092915050565b60005b838110156110e85780820151818401526020810190506110cd565b838111156110f7576000848401525b50505050565b6000611108826110b4565b61111281856110bf565b93506111228185602086016110ca565b80840191505092915050565b600061113a82846110fd565b915081905092915050565b600081519050919050565b6000601f19601f8301169050919050565b600061116c82611145565b6111768185610b83565b93506111868185602086016110ca565b61118f81611150565b840191505092915050565b600060208201905081810360008301526111b48184611161565b90509291505056fea26469706673582212209904ca42b7eb28ed9e28c699ab35118034e01f3e5c590febc6d3eeb3a6ebc39a64736f6c63430008090033",
  "linkReferences": {},
  "deployedLinkReferences": {}
}