{
  "_format": "hh-sol-artifact-1",
  "contractName": "TRST0Payback",
  "sourceName": "contracts/TRST0Payback.sol",
  "abi": [
    {
      "inputs": [
        {
          "internalType": "contract ERC20",
          "name": "_token",
          "type": "address"
        },
        {
          "internalType": "uint256",
          "name": "_rate",
          "type": "uint256"
        }
      ],
      "stateMutability": "nonpayable",
      "type": "constructor"
    },
    {
      "anonymous": false,
      "inputs": [
        {
          "indexed": true,
          "internalType": "address",
          "name": "sender",
          "type": "address"
        },
        {
          "indexed": true,
          "internalType": "address",
          "name": "beneficiary",
          "type": "address"
        },
        {
          "indexed": false,
          "internalType": "uint256",
          "name": "value",
          "type": "uint256"
        },
        {
          "indexed": false,
          "internalType": "uint256",
          "name": "amount",
          "type": "uint256"
        }
      ],
      "name": "TokenReturn",
      "type": "event"
    },
    {
      "anonymous": false,
      "inputs": [
        {
          "indexed": true,
          "internalType": "address",
          "name": "sender",
          "type": "address"
        },
        {
          "indexed": false,
          "internalType": "uint256",
          "name": "value",
          "type": "uint256"
        }
      ],
      "name": "TopUp",
      "type": "event"
    },
    {
      "inputs": [],
      "name": "getBalance",
      "outputs": [
        {
          "internalType": "uint256",
          "name": "",
          "type": "uint256"
        }
      ],
      "stateMutability": "view",
      "type": "function"
    },
    {
      "inputs": [],
      "name": "rate",
      "outputs": [
        {
          "internalType": "uint256",
          "name": "",
          "type": "uint256"
        }
      ],
      "stateMutability": "view",
      "type": "function"
    },
    {
      "inputs": [
        {
          "internalType": "address",
          "name": "_beneficiary",
          "type": "address"
        },
        {
          "internalType": "uint256",
          "name": "_amount",
          "type": "uint256"
        }
      ],
      "name": "returnTokens",
      "outputs": [],
      "stateMutability": "nonpayable",
      "type": "function"
    },
    {
      "inputs": [],
      "name": "tokensReturned",
      "outputs": [
        {
          "internalType": "uint256",
          "name": "",
          "type": "uint256"
        }
      ],
      "stateMutability": "view",
      "type": "function"
    },
    {
      "stateMutability": "payable",
      "type": "receive"
    }
  ],
  "bytecode": "0x608060405234801561001057600080fd5b5060405161079e38038061079e8339818101604052810190610032919061012b565b816000806101000a81548173ffffffffffffffffffffffffffffffffffffffff021916908373ffffffffffffffffffffffffffffffffffffffff16021790555080600181905550505061016b565b600080fd5b600073ffffffffffffffffffffffffffffffffffffffff82169050919050565b60006100b082610085565b9050919050565b60006100c2826100a5565b9050919050565b6100d2816100b7565b81146100dd57600080fd5b50565b6000815190506100ef816100c9565b92915050565b6000819050919050565b610108816100f5565b811461011357600080fd5b50565b600081519050610125816100ff565b92915050565b6000806040838503121561014257610141610080565b5b6000610150858286016100e0565b925050602061016185828601610116565b9150509250929050565b6106248061017a6000396000f3fe6080604052600436106100435760003560e01c806312065fe01461009d57806326fc4c7f146100c85780632c4e722e146100f1578063a12cbc2b1461011c57610098565b36610098573373ffffffffffffffffffffffffffffffffffffffff167f29e6701fa948667bae25d3e2ef7966f2a11754e98aa0dc52c55133430caee2df3460405161008e919061034b565b60405180910390a2005b600080fd5b3480156100a957600080fd5b506100b2610147565b6040516100bf919061034b565b60405180910390f35b3480156100d457600080fd5b506100ef60048036038101906100ea91906103f5565b61014f565b005b3480156100fd57600080fd5b506101066102f2565b604051610113919061034b565b60405180910390f35b34801561012857600080fd5b506101316102f8565b60405161013e919061034b565b60405180910390f35b600047905090565b600061015a826102fe565b90506000610166610147565b90508082111561017557600080fd5b60008054906101000a900473ffffffffffffffffffffffffffffffffffffffff1673ffffffffffffffffffffffffffffffffffffffff166323b872dd3330866040518463ffffffff1660e01b81526004016101d293929190610444565b602060405180830381600087803b1580156101ec57600080fd5b505af1158015610200573d6000803e3d6000fd5b505050506040513d601f19601f8201168201806040525081019061022491906104b3565b508260026000828254610237919061050f565b925050819055508373ffffffffffffffffffffffffffffffffffffffff166108fc839081150290604051600060405180830381858888f19350505050158015610284573d6000803e3d6000fd5b508373ffffffffffffffffffffffffffffffffffffffff163373ffffffffffffffffffffffffffffffffffffffff167fe49818698510516f0b09d236f10a1a4b036a3c399d41966f7c1ffd255222bb2084866040516102e4929190610565565b60405180910390a350505050565b60015481565b60025481565b60006103156001548361031c90919063ffffffff16565b9050919050565b6000818361032a91906105bd565b905092915050565b6000819050919050565b61034581610332565b82525050565b6000602082019050610360600083018461033c565b92915050565b600080fd5b600073ffffffffffffffffffffffffffffffffffffffff82169050919050565b60006103968261036b565b9050919050565b6103a68161038b565b81146103b157600080fd5b50565b6000813590506103c38161039d565b92915050565b6103d281610332565b81146103dd57600080fd5b50565b6000813590506103ef816103c9565b92915050565b6000806040838503121561040c5761040b610366565b5b600061041a858286016103b4565b925050602061042b858286016103e0565b9150509250929050565b61043e8161038b565b82525050565b60006060820190506104596000830186610435565b6104666020830185610435565b610473604083018461033c565b949350505050565b60008115159050919050565b6104908161047b565b811461049b57600080fd5b50565b6000815190506104ad81610487565b92915050565b6000602082840312156104c9576104c8610366565b5b60006104d78482850161049e565b91505092915050565b7f4e487b7100000000000000000000000000000000000000000000000000000000600052601160045260246000fd5b600061051a82610332565b915061052583610332565b9250827fffffffffffffffffffffffffffffffffffffffffffffffffffffffffffffffff0382111561055a576105596104e0565b5b828201905092915050565b600060408201905061057a600083018561033c565b610587602083018461033c565b9392505050565b7f4e487b7100000000000000000000000000000000000000000000000000000000600052601260045260246000fd5b60006105c882610332565b91506105d383610332565b9250826105e3576105e261058e565b5b82820490509291505056fea2646970667358221220c2d33888e92c44f35527cdf575caf64c163486bbe5a96d8dba7f4741f44cc76e64736f6c63430008090033",
  "linkReferences": {},
  "deployedLinkReferences": {}
}